:020000020000FC
:0200000013C02B
:0200160007C021
:1000260018950FE50DBF04E00EBF16D44ED5C2D00D
:1000360011D0F1D502D028D5F9CF11270091B10002
:10004600000FE4EAFEE0E00FF11F05911591F801BB
:1000560009950895A0EDB0E000E20F93AF93BF932A
:100066000D9107FF0BC011270F77000FE6ECFEE09E
:10007600E00FF11F05911591F8010995BF91AF9118
:1000860016960F910A9549F708951D900D901091B7
:10009600CA000091C9000015110521F411960D91B1
:1000A6002C9112D008951D900D901091CA000091C8
:1000B600C9000015110520F011960D912C9104D060
:1000C600089508950895089511270F77000FE0ED1C
:1000D600FEE0E00FF11F05911591F80109953093A7
:1000E600C20036FD969A36FF969837FD979A37FFE7
:1000F600979830FDC09A30FFC09800000895089583
:100106003091C200203011F43F7B08953064089589
:10011600203011F43F77089530680895203011F4A7
:100126003E7F089531600895213030F02ABD30D5E4
:100136000FB500680FBD08950FB50F770FBD089571
:10014600213030F028BD24D50FB500620FBD0895CB
:100156000FB50F7D0FBD0895089508950895309148
:10016600C200203011F43E730895316C0895213099
:1001760038F02ABD28BD0CD50FB5006A0FBD08950D
:100186000FB50F750FBD08953091C200203011F4E0
:100196003E7301C0316C0000213038F02ABD28BD05
:1001A600F7D40FB5006A0FBD08950FB50F750FBDD3
:1001B600F6D4089508D5A1D308950AE00093C100A6
:1001C600B4D500ED0093C700BAD5AAD500E00093D8
:1001D600C700B5D5A5D50091C8000093C700AFD517
:1001E6009FD50091C9000093BD0098D40091BE0030
:1001F6000093C700A4D594D50091CA000093BD0012
:100206008DD40093C7009BD58BD504E00093BD0029
:1002160085D40093C70093D583D50091CC00009375
:10022600BD007CD40093C7008AD57AD50091CD0055
:100236000093BD0073D40093C70081D571D500919A
:10024600CE000093BD006AD40093C70078D568D568
:1002560071D508950091B5000F3F19F10091B300D3
:10026600003819F401E00093B100023049F410910E
:10027600B2001395183009F001C017E01093B200D0
:10028600083049F41091B2001A95103009F001C0F7
:1002960011E01093B200003121F41091B2001093D6
:1002A600B1001091B200A1E7B0E0012FE0E4FEE05A
:1002B60082D30EE300937000089500E00093BA0025
:1002C6000091C8000093B90083D3ABE7B0E00CD42B
:1002D6000091C9000093B9007BD3A8E7B0E004D42D
:1002E6000091CA000093B90073D3A5E7B0E0FCD330
:1002F6000091CE000093B9006BD3ABE8B0E0F4D325
:100306000091CD000093B90063D3A8E8B0E0ECD328
:100316000091CC000093B9005BD3A5E8B0E0E4D32C
:100326000BE500937500009385000DE500937E00B4
:1003360000938E000AE300937B00009378000FE29F
:100346000093880000938B0011E000E00093810089
:100356000093820000938300869910938100879909
:1003660010938200B0991093830001E3009371000B
:1003760002E30093720003E30093730002E000932C
:100386007400009384000091B5000F3F39F000918E
:10039600B300003111F400E00093B100089500911C
:1003A600B300003139F40091B5000F3F19F001E0B8
:1003B6000093C4000091C400003009F4A7D00130B6
:1003C60009F402D0C7D008950091B300003839F47B
:1003D6000091B5000F3F19F100E00093C40004300E
:1003E60081F40091B5000F3FD1F00091C50003954F
:1003F600043014F40093C50012C002E00093C50057
:100406000EC0013061F40091B5000F3F41F000913C
:10041600C5000A950F3F09F400E00093C500A0ED62
:10042600B0E00091C300003019F016960A95E9F77E
:1004360010960C911091B300103249F41091B5004A
:100446001F3FA1F010E010E801270C930FC01034F5
:1004560069F41091B5001F3F49F00F7703951C9181
:10046600043008F000E017FD00680C930C910F773C
:100476001127000FE4EBFEE0E00FF11F0591159147
:10048600F801099514960C910C3008F000E00C93D5
:100496000895AF93BF9311270091C500000FEEEBAF
:1004A600FEE0E00FF11F0591A00FB11F0091B30010
:1004B600083039F40091C400013071F41C91139591
:1004C6001C930091B300023039F40091C40001304E
:1004D60019F41C911A951C93BF91AF91AF93BF93DA
:1004E60011960C91083110F000E00C93BF91AF917A
:1004F600AF93BF9312960C910C3310F000E00C935F
:10050600BF91AF9108950895089508950091B3009D
:10051600023029F41091C30013951093C3000830DC
:1005260029F41091C3001A951093C300003839F4CA
:100536000091B5000F3F19F010E01093B100009143
:10054600C300003208F0002700300CF400E20093EC
:10055600C3000895C0EDD0E00091C300003019F04B
:1005660026960A95E9F702E00093BA000091C300C7
:1005760003950093B9002CD2A0E7B0E0B5D2CF9393
:10058600DF93209609910F77A3E7B0E0002FECE107
:10059600FEE011D2DF91CF91CF93DF9310E020964A
:1005A600088107FD11E010938100DF91CF91CF9371
:1005B600DF93219608810093B9000AD2A8E7B0E03C
:1005C60093D2DF91CF91CF93DF9322960881009348
:1005D600B900FED1ACE7B0E087D2DF91CF91CF93DF
:1005E600DF9324960991A3E8B0E0002FE0ECFDE04C
:1005F600E2D1DF91CF91CF93DF93259609910093B6
:10060600B900E6D1ACE8B0E06FD2DF91CF91CF93DD
:10061600DF9325960991023008F001E0A8E8B0E0E2
:10062600002FE0E1FEE0C7D1DF91CF910091C40039
:10063600013011F40DE4009380000AE300937B007F
:1006460002E000937200009382000093770000930B
:1006560087000091C400003009F408952EE31127A5
:100666000091C500000FEEEBFEE0E00FF11F0591D3
:100676000591A0E7B0E0A00FB11F2C9308951DDEF1
:100686002EE311270091C600000FE0E0FFE0E00F27
:10069600F11F0591302F0591A0E7B0E0A00FB11F23
:1006A6002C93032F1127A8ECB0E0A00FB11F0091E7
:1006B600B300083021F42C9123952C9327C00230E7
:1006C60021F42C912A952C9321C0043051F40091E9
:1006D600B5000F3FD9F02091C60023952093C600A0
:1006E60015C0013051F40091B5000F3F79F020910B
:1006F600C6002A952093C60009C0003839F4009137
:10070600B5000F3F19F021E02093B1000091C80019
:100716000C3310F000E00093C8000F7F0093C80070
:100726000091C9000C3310F000E00093C90000915D
:10073600CA00083110F000E00093CA000091CC0016
:10074600003210F001E00093CC000091CC000030A4
:1007560011F401E00093CC000091CD000D3010F0B3
:1007660001E00093CD000091CD00003011F401E0CE
:100776000093CD000091CE00043610F000E0009307
:10078600CE000091C600073010F000E00093C600CE
:1007960014DD08950091B300003811F400E00093D1
:1007A600B1000000E6E7FEE0A0E7B0E0FED0089565
:1007B60080ECB7D083E5C4D081E6C2D086E7C0D04E
:1007C60089E6BED08EE6BCD087E6BAD001E010E05E
:1007D600222730ECA0EDB0E02D91E6D103953A95B5
:1007E600D9F700E00093B100089501E010E0222758
:1007F60030ECA0EDB0E0E0D12D9303953A95D9F712
:1008060000E00093B1000895E0EAFDE0A0E7B0E063
:10081600CCD00091B300003259F40091B5000F3FDF
:1008260061F000EC1127A0EDB0E01D930A95E9F701
:10083600003819F400E00093B10008950091B30068
:10084600003811F400E00093B1000000E0E8FDE09C
:10085600A0E7B0E0AAD00895A49AA39AAC98AB9862
:100866008E9A8F9AB89AB99ABA9ABB9ABC9ABD9A36
:1008760096989798C098C198C298C398C498C598F6
:100886008D9A8C9A95989498A09AA19AA29834D207
:1008960060D165D025D0A9DF00E00093C3000093A6
:1008A600C4000093C5000093C2000093C60001E097
:1008B6000093B10003950093B200089500E0009301
:1008C600BA000DB70093B90083D0A1E8B0E00CD10F
:1008D6000EB70093B9007CD0A4E8B0E005D1089526
:1008E600C0EDD0E0002710E226E009932A95E9F74B
:1008F6001A95D1F70093C3000895A8ECB0E037E04D
:100906000C910093BB00FAD00091BC000D933A9570
:10091600B9F7089548E03FEF3A95F1F74A95D9F7C8
:100926000895AC98AB98782FA9D1AC9A0000000036
:1009360000000000000000000000AC98EBDF089506
:10094600AC98AB9A782F9AD1AC9A000000000000C0
:100956000000000000000000AC98DCDF08958CE089
:10096600E0DF88E3DEDF82E0DCDF86E0DADF80E4FA
:10097600D8DF98E0E8EEFEE08591E2DF9A95E1F7B0
:1009860088E4CFDF98E0E0EFFEE08591D9DF9A9525
:10099600E1F780E5C6DF98E0E8EFFEE08591D0DF7D
:1009A6009A95E1F782E0BDDF089505910F3F11F0BA
:1009B6000D93FBCF0895000F1127E00FF11F05914E
:1009C6001591110F07FB10F9000FF801EEDF0895DE
:1009D6000027112700E30093B6000093B7000093A9
:1009E600B8001091BA00103069F000E21091B90019
:1009F600143608F007C00093B6001A3008F002C09B
:100A06000093B7001091B900143648F00091B60073
:100A160003950093B60014561030A9F0F5CF1A309E
:100A260048F00091B70003950093B7001A501030B4
:100A360051F0F5CF103039F00091B80003950093CE
:100A4600B8001A95F7CF0091BA000230E1F4009190
:100A5600B900043608F017C010E20091B700009301
:100A6600B6000091B8000093B7001093B80000914B
:100A7600B9000A3008F007C010E20091B7000093F1
:100A8600B6001093B700089580E84BDFA0E7B0E00A
:100A960050E18D9155DF5A95E1F780EC42DF50E148
:100AA6008D914EDF5A95E1F780E93BDFA0E9B0E092
:100AB60050E18D9145DF5A95E1F780ED32DF50E147
:100AC6008D913EDF5A95E1F70895A0E7B0E050E238
:100AD60000E20D935A95E9F7A0E9B0E050E200E292
:100AE6000D935A95E9F708950091B6000D9300917C
:100AF600B7000D930091B8000D9308950091BB00C7
:100B0600102F169516951695169522272AE0129FF0
:100B1600102D0F70100F1093BC0008950091BD00AA
:100B26000A30A0F0102F222723950A500A3008F029
:100B3600FBCF0000220F220F220F220F022F2227A7
:100B460023951A501A3008F0FBCF012B0093BE00F4
:100B560008954FEF3FEF3A95F1F74A95D9F7089583
:100B66000091C10013E013BF10E012BF12B71D378A
:100B7600E9F70A95C9F708950F930091C10000009F
:100B860000000000000000000A95C9F70F910895C3
:100B96000F9301E00FBD0AE00EBD0F9108950F936C
:100BA60000E00EBD0F910895E199FECF0EBB1FBB6D
:100BB6002DBBE29AE19A0895E199FECF0EBB1FBBC9
:100BC600E09A2DB308950AE00093C100AED000ED7F
:100BD6000093C700B4D0A4D000E00093C700AFD004
:100BE6009FD0A8D0A2D001ED0093C700A8D098D07E
:100BF60027E0A8ECB0E0B2D00091C7000D932130F9
:100C060019F08BD081D083D02A95A9F77DD07CD0DE
:100C16007ED090D008950091B3000093B40028E0F0
:100C26001127E894A898A89AA998A898A89AA99A82
:100C360003B302FB110F10F9A898A89A2A95C1F7D9
:100C460010951093B30000270093B5000091B300F0
:100C56001091B400011719F40FEF0093B500089531
:100C660001EA0FBD0AE00EBD0AE605BD089501E0E2
:100C76000FBD08E00EBD08E405BD0895272F38E036
:100C8600A59A889AAD98909827FD909A27FF9098F4
:100C9600AD98AD9A221F3A95B9F7AD98AD9A0895D9
:100CA60003E309B900E000BD00E00BB908E90AB9A1
:100CB60006E800BD08955498539808955D9BFECFAD
:100CC6006CB9089506E607B905EC06B908953B9890
:100CD6003A9A399A3898369A3699FECF05B10093E2
:100CE600BF003B983A9A399A389A369A3699FECF87
:100CF60005B10093C000089500E8A0E6B0E010E05A
:100D06001D930A95E9F708958D9836DF08958D9A13
:100D160033DF08958C9830DF08958C9A2DDF08957F
:100D2600F3DF8499FECFF3DF0895F4DFEDDFF5DF1F
:100D3600EEDF0895ECDFF1DFE7DFECDF08951091D9
:100D4600C70008E017FDE6DF17FFE7DFDDDFDFDFBF
:100D5600111F0A95B9F717FDDDDF0895112708E081
:100D6600D9DF111FD1DF84991160849B1E7FCFDFED
:100D76000A95B9F71093C700089552656C617920FA
:100D86007363686564756C6572204279204261629E
:100D96006B696E204B2E562EFF0020204572617324
:100DA60065207461736B733F202046323A59455370
:100DB600202020204553433A4E4FEC06EE06F0061F
:100DC600F206F406F706FA06FC06FE060007030717
:100DD60006074E2F41FF434831FF434832FF434841
:100DE60033FF50574D31FF0050574D32FF005231FF
:100DF600FF005232FF005233FF0043312D33FF0014
:100E060050312D32FF00414C4CFF0C070A07204F92
:100E16004EFF4F4646FF1307160719071B071D0708
:100E260054203D3DFF0054203E3DFF00457874FFB1
:100E3600414443FF53656E73FF00280729072F07B8
:100E460036073B07430749074F0720FF53686F776D
:100E560020636C6F636BFF005461736B206D616E72
:100E660061676572FF0053657420636C6F636BFF87
:100E760052656C6179206F76657272696465FF00F0
:100E860053617665207461736B73FF00436C656113
:100E960072207461736B73FF41626F7574FF2D016D
:100EA6006001D2014203CD03DB03070421044C0297
:100EB6004C028602870288020107020B04120517FC
:100EC60048005600640065006600820083008B00BF
:100ED60091009700A300AF00B000B100B200BA00C5
:100EE600C7001F1111111F1F1F1F1F1F1F1F1111C9
:100EF600111F040404040404040402050108000B81
:060F060004150518061B8E
:00000001FF
